:02000000AD2928
:1000060083120313FB01FA01F9018030F800F10CA9
:10001600F00C031C17287408F90775080318750FE8
:10002600FA070318FB0A0310F01F1F287408FA07C3
:1000360075080318750FFB07FB0CFA0CF90CF80C86
:10004600031C0A287B08F3007A08F2007908F100FD
:060056007808F00008002C
:10005C00073083120313FC007D30FD00FD0B3428A8
:06006C00FC0B3428080023
:0C00720083120313950117129712080067
:10007E0083120313F8010830FC00700DF80D74089C
:10008E00F80203184C28F8070310F00DFC0B442857
:02009E00080058
:1000A000831203137008F100F0010830FC0071089E
:1000B000F40C03185F28FC0B5828F10100340310DE
:1000C0006428F40C0318F107F10CF00CFC0B612808
:0200D000080026
:1000D200831603138611831212150C30970408003D
:1000E2009228C03083120313F000BC28F930F000CC
:1000F200BC28A430F000BC28B030F000BC289930F5
:10010200F000BC289230F000BC288230F000BC28FD
:10011200F830F000BC288030F000BC289030F000AD
:10012200BC28831203132B08003A031972282B08E8
:10013200013A031977282B08023A03197A282B0867
:10014200033A03197D282B08043A031980282B0847
:10015200053A031983282B08063A031986282B0827
:10016200073A031989282B08083A03198C282B0807
:08017200093A03198F28080067
:0E017A008312031324088A0023088200080061
:10018800831603131208013EF000F1010318F10A67
:1001980083122B08F400F50103200630F2007008E2
:1001A800F4007108F50072080319DF28F50CF40C47
:1001B800F513FF3ED8280430F1007408F0007108E8
:1001C8000319EA28F00D7010FF3EE428303070055E
:1001D800F3007408F0007508F100F10CF00CF1134D
:1001E800F10CF00CF113700895000F3097057308A7
:0401F8009704080060
:1001FC00023083120313FB008630FC009930FD00A3
:0E020C00FD0B0629FC0B0629FB0B062908003A
:10021A00831203138515FE20FE2081014D30FB0059
:10022A001930FC004F30FD00FD0B1929FC0B192970
:10023A00FB0B19290000000085110108A000200805
:0C024A00A200A20D2210A20D221008003C
:10025600BD208A110A128000840AA30A0319A40A7F
:08026600F003031D2B29080021
:10026E008312031312109210C73083169200392096
:10027E00A101A70169202708AB00C4202830220263
:10028E00031C5029FA30210203184F291930A107F7
:10029E0056292108003A031956291930A1022708B8
:1002AE00210603195F292108A7002108AB00C420ED
:1002BE00C330FC00CD30FD00FD0B6329FC0B632920
:0402CE0045290800B6
:1002D2000A3083120313F4002208F0003F2078084A
:1002E200F0007008A6007008AB007120831203139F
:1002F2007008A6000A30F4002208F0003F200A30FD
:10030200F4003F207808F0007008AA007008AB00E3
:100312007120831203137008AA00A801A901B43046
:10032200F0002508F400502029087102031D9B29C2
:1003320028087002031CAB298510051426088600C4
:100342002E20851405102A0886002E20A80A0319DB
:08035200A90A90290514080016
:10035A000730831203139F003030831685008030E4
:10036A008600283081008312A2010130A50069218C
:10037A00861BC529FE200D210330A50069213721DE
:04038A00BD29C6299A
:02400E006A2125
:00000001FF
